:100000000C942A000C9447000C9447000C94470071
:100010000C9447000C9447000C9447000C94470044
:100020000C9447000C9447000C9447000C94A402D5
:100030000C9447000C9447000C9447000C94470024
:100040000C9447000C9447000C9447000C94470014
:100050000C94470011241FBECFE5D4E0DEBFCDBF16
:1000600010E0A0E6B0E0E8E8F3E102C005900D92F0
:10007000A838B107D9F710E0A8E8B0E001C01D9298
:10008000AD38B107E1F70E94BB090C94C2090C948A
:100090000000DF93CF93CDB7DEB781E00E94E1008F
:1000A000CF91DF910895DF93CF9300D0CDB7DEB726
:1000B000CE0102960E94BA0089838A81813039F488
:1000C00081E00E94E1009981892B89830CC08A819B
:1000D000882339F480E00E94E1009981892B89838B
:1000E00002C081E0898389810F900F90CF91DF91C9
:1000F0000895DF93CF93CDB7DEB781E00E94AC00C7
:10010000CF91DF910895DF93CF9300D0CDB7DEB7C5
:100110009E012E5F3F4F80E0B9010E94CC00898391
:100120008A81813039F481E00E94AC009981892B69
:1001300089830CC08A81882339F480E00E94AC0056
:100140009981892B898302C081E0898389810F90FD
:100150000F90CF91DF910895DF93CF930F92CDB79A
:10016000DEB7898389818093600080E00F90CF9112
:10017000DF910895DF93CF9300D0CDB7DEB79A8398
:10018000898380916000E981FA81808380E00F900B
:100190000F90CF91DF910895DF93CF9300D00F920E
:1001A000CDB7DEB789837B836A832A813B818981CE
:1001B000B9010E940F080F900F900F90CF91DF911F
:1001C0000895DF93CF930F92CDB7DEB7898380E098
:1001D00062E049810E94FD040F90CF91DF91089564
:1001E000DF93CF93CDB7DEB70E94E8070E94A20746
:1001F0000E9479000E94490080E00E94E702CF91AE
:10020000DF910895DF93CF93CDB7DEB70E94F90851
:100210000E9483000E945300CF91DF910895DF93E5
:10022000CF9300D00F92CDB7DEB71982AAE2B0E02B
:10023000EAE2F0E0808188608C93AAE2B0E0EAE232
:10024000F0E0808180618C9380918000282F30E0E5
:100250003B832A838A819B818230910509F448C0BF
:100260002A813B812330310554F48A819B81009798
:1002700099F02A813B812130310521F17BC08A81AF
:100280009B818330910509F449C02A813B81243048
:10029000310509F459C06EC0AAE2B0E0EAE2F0E02C
:1002A00080818B7F8C93A0E4B0E0E0E4F0E080817B
:1002B0008B7F8C93A0E4B0E0E0E4F0E080818D7F60
:1002C0008C935AC0AAE2B0E0EAE2F0E080818B7F32
:1002D0008C93A0E4B0E0E0E4F0E080818B7F8C932D
:1002E000A0E4B0E0E0E4F0E0808182608C9344C060
:1002F000AAE2B0E0EAE2F0E080818B7F8C93A0E498
:10030000B0E0E0E4F0E0808184608C93A0E4B0E0B1
:10031000E0E4F0E080818D7F8C932EC0AAE2B0E013
:10032000EAE2F0E080818B7F8C93A0E4B0E0E0E42F
:10033000F0E0808184608C93A0E4B0E0E0E4F0E041
:10034000808182608C9318C0AAE2B0E0EAE2F0E01B
:10035000808184608C93A0E4B0E0E0E4F0E08081F0
:1003600084608C93A0E4B0E0E0E4F0E080818260FF
:100370008C9302C081E08983E9E2F0E083E380832B
:10038000AAE2B0E0EAE2F0E08081282F80918400C8
:10039000882F90E0002496958795079496958795E9
:1003A0000794982F802D822B8C93AAE2B0E0EAE28A
:1003B000F0E08081282F80918500882F90E096952D
:1003C000982F882797958795822B8C93A0E4B0E08F
:1003D000E0E4F0E0808180688C93A0E4B0E0E0E4A9
:1003E000F0E08081282F80918300882F90E0829513
:1003F0009295907F9827807F9827822B8C93A0E4FA
:10040000B0E0E0E4F0E08081282F80918200882F26
:1004100090E0880F991F880F991F880F991F822BD2
:100420008C9389810F900F900F90CF91DF91089559
:10043000DF93CF9300D0CDB7DEB78A831982ECE289
:10044000F0E08A818083EBE2F0E08081882F90E009
:1004500080749070082E892F000C881F990B000C57
:10046000881F991F009779F389810F900F90CF9182
:10047000DF910895DF93CF9300D00F92CDB7DEB711
:100480009B838A831982EBE2F0E08081881F8827B2
:10049000881F882F90E090700097A9F3ECE2F0E0BD
:1004A0008081EA81FB81808389810F900F900F907A
:1004B000CF91DF910895DF93CF93CDB7DEB7A3E55A
:1004C000B0E0E3E5F0E0808182608C93A9E5B0E0E4
:1004D000E9E5F0E0808181608C93AFE5B0E0EFE585
:1004E000F0E0808180688C93CF91DF910895DF9355
:1004F000CF930F92CDB7DEB78983E2E5F0E0898133
:100500008095808380E00F90CF91DF910895DF93F5
:10051000CF9300D00F92CDB7DEB79A8389838981BC
:100520009A81009741F089819A8190938900809304
:1005300088001B8202C081E08B838B810F900F901B
:100540000F90CF91DF9108951F920F920FB60F92E7
:1005500011242F933F934F935F936F937F938F93C8
:100560009F93AF93BF93EF93FF93DF93CF93CDB759
:10057000DEB78091880090918900009729F0E09182
:100580008800F09189000995CF91DF91FF91EF915B
:10059000BF91AF919F918F917F916F915F914F919B
:1005A0003F912F910F900FBE0F901F901895DF93E2
:1005B000CF93CDB7DEB787EE93E00E9487020E940B
:1005C0005B028AEF0E947702CF91DF910895DF935B
:1005D000CF930F92CDB7DEB789838981482F50E042
:1005E000CA01880F991F9C01220F331F220F331F4E
:1005F000820F931F840F951FFC01E559FF4F82E086
:1006000080830F90CF91DF910895DF93CF930F9266
:10061000CDB7DEB789838981482F50E0CA01880FA2
:10062000991F9C01220F331F220F331F820F931F2C
:10063000840F951FFC01E559FF4F81E080830F90E7
:10064000CF91DF910895EF92FF920F931F93DF9365
:10065000CF930F92CDB7DEB71982ADC08981482FF5
:1006600050E0CA01880F991F9C01220F331F220FEF
:10067000331F820F931F840F951FFC01E559FF4F15
:100680008081813009F094C08981482F50E0CA01EF
:10069000880F991F9C01220F331F220F331F820FD7
:1006A000931F840F951FFC01E959FF4F80819181B1
:1006B000A281B3810097A105B10509F049C08981E4
:1006C000082F10E08981482F50E0CA01880F991F38
:1006D0009C01220F331F220F331F820F931F840FA1
:1006E000951FFC01ED59FF4F80819181A281B3815B
:1006F000AC01BD014150504060407040C801880FBE
:10070000991F9C01220F331F220F331F820F931F4B
:10071000800F911FFC01E959FF4F40835183628391
:1007200073838981482F50E0CA01880F991F9C016B
:10073000220F331F220F331F820F931F840F951F29
:10074000FC01EF59FF4F0190F081E02D099530C079
:100750008981482F50E0CA01880F991F9C01220F00
:10076000331F220F331F820F931F840F951FFC012D
:10077000E959FF4F80819181A281B3817C018D0174
:100780000894E108F10801091109CA01880F991FAD
:100790009C01220F331F220F331F820F931F840FE0
:1007A000951FFC01E959FF4FE082F1820283138318
:1007B00089818F5F89838981823008F44FCF0F90C0
:1007C000CF91DF911F910F91FF90EF900895DF93EC
:1007D000CF93CDB7DEB780918A008F5F80938A0078
:1007E00080918A00843021F410928A000E942303B1
:1007F000CF91DF910895DF93CF9300D000D000D048
:10080000CDB7DEB789836A834B838981282F30E097
:100810003E832D838D819E818130910509F449C0ED
:100820002D813E81223031052CF48D819E810097EF
:1008300071F0D5C02D813E812230310509F46BC0A5
:100840008D819E818330910509F497C0C8C08B814A
:100850008823A9F4AAE3B0E0EAE3F0E08081482F1E
:100860008A81282F30E081E090E0022E02C0880FBC
:10087000991F0A94E2F7809584238C93B3C08B81EF
:100880008130A1F4AAE3B0E0EAE3F0E08081482FF0
:100890008A81282F30E081E090E0022E02C0880F8C
:1008A000991F0A94E2F7842B8C939CC091E09C835F
:1008B0009AC08B818823A9F4A7E3B0E0E7E3F0E0D6
:1008C0008081482F8A81282F30E081E090E0022E3D
:1008D00002C0880F991F0A94E2F7809584238C93B5
:1008E00081C08B818130A1F4A7E3B0E0E7E3F0E0C1
:1008F0008081482F8A81282F30E081E090E0022E0D
:1009000002C0880F991F0A94E2F7842B8C936AC067
:1009100021E02C8368C08B818823A9F4A4E3B0E094
:10092000E4E3F0E08081482F8A81282F30E081E0E5
:1009300090E0022E02C0880F991F0A94E2F780957A
:1009400084238C934FC08B818130A1F4A4E3B0E069
:10095000E4E3F0E08081482F8A81282F30E081E0B5
:1009600090E0022E02C0880F991F0A94E2F7842BB0
:100970008C9338C031E03C8336C08B818823A9F446
:10098000A1E3B0E0E1E3F0E08081482F8A81282FE5
:1009900030E081E090E0022E02C0880F991F0A9497
:1009A000E2F7809584238C931DC08B818130A1F464
:1009B000A1E3B0E0E1E3F0E08081482F8A81282FB5
:1009C00030E081E090E0022E02C0880F991F0A9467
:1009D000E2F7842B8C9306C081E08C8304C091E005
:1009E0009C8301C01C828C8126960FB6F894DEBFD2
:1009F0000FBECDBFCF91DF910895DF93CF9300D08D
:100A000000D000D0CDB7DEB789836A834B8389815C
:100A1000282F30E03E832D838D819E81813091058A
:100A200009F449C02D813E81223031052CF48D819D
:100A30009E81009771F0D5C02D813E812230310515
:100A400009F46BC08D819E818330910509F497C0B4
:100A5000C8C08B818823A9F4ABE3B0E0EBE3F0E0FE
:100A60008081482F8A81282F30E081E090E0022E9B
:100A700002C0880F991F0A94E2F7809584238C9313
:100A8000B3C08B818130A1F4ABE3B0E0EBE3F0E0E5
:100A90008081482F8A81282F30E081E090E0022E6B
:100AA00002C0880F991F0A94E2F7842B8C939CC094
:100AB00091E09C839AC08B818823A9F4A8E3B0E0DD
:100AC000E8E3F0E08081482F8A81282F30E081E040
:100AD00090E0022E02C0880F991F0A94E2F78095D9
:100AE00084238C9381C08B818130A1F4A8E3B0E092
:100AF000E8E3F0E08081482F8A81282F30E081E010
:100B000090E0022E02C0880F991F0A94E2F7842B0E
:100B10008C936AC021E02C8368C08B818823A9F460
:100B2000A5E3B0E0E5E3F0E08081482F8A81282F3B
:100B300030E081E090E0022E02C0880F991F0A94F5
:100B4000E2F7809584238C934FC08B818130A1F490
:100B5000A5E3B0E0E5E3F0E08081482F8A81282F0B
:100B600030E081E090E0022E02C0880F991F0A94C5
:100B7000E2F7842B8C9338C031E03C8336C08B8104
:100B80008823A9F4A2E3B0E0E2E3F0E08081482FFB
:100B90008A81282F30E081E090E0022E02C0880F89
:100BA000991F0A94E2F7809584238C931DC08B8152
:100BB0008130A1F4A2E3B0E0E2E3F0E08081482FCD
:100BC0008A81282F30E081E090E0022E02C0880F59
:100BD000991F0A94E2F7842B8C9306C081E08C83E2
:100BE00004C091E09C8301C01C828C8126960FB6C4
:100BF000F894DEBF0FBECDBFCF91DF910895DF9394
:100C0000CF9300D000D00F92CDB7DEB789836A832F
:100C10008981282F30E03D832C838C819D81813018
:100C20009105D1F02C813D81223031052CF48C814D
:100C30009D81009761F01FC02C813D8122303105DC
:100C400081F08C819D818330910581F014C0EAE3AD
:100C5000F0E08A81808312C0E7E3F0E08A8180833C
:100C60000DC0E4E3F0E08A81808308C0E1E3F0E0B6
:100C70008A81808303C091E09B8301C01B828B81AA
:100C80000F900F900F900F900F90CF91DF910895DC
:100C9000DF93CF9300D000D00F92CDB7DEB789831A
:100CA0006A838981282F30E03D832C838C819D814C
:100CB00081309105D1F02C813D81223031052CF419
:100CC0008C819D81009761F01FC02C813D81223075
:100CD000310581F08C819D818330910581F014C0B4
:100CE000EBE3F0E08A81808312C0E8E3F0E08A81E0
:100CF00080830DC0E5E3F0E08A81808308C0E2E3F1
:100D0000F0E08A81808303C091E09B8301C01B8255
:100D10008B810F900F900F900F900F90CF91DF91DC
:100D20000895DF93CF93CDB7DEB727970FB6F8942A
:100D3000DEBF0FBECDBF89836A835C834B8389810D
:100D4000282F30E03F832E834E815F814130510553
:100D5000C1F18E819F818230910534F42E813F81D3
:100D60002115310571F08DC04E815F8142305105F2
:100D700009F447C08E819F818330910509F461C0D9
:100D800080C0E9E3F0E08081482F50E08A81282F7D
:100D900030E081E090E002C0880F991F2A95E2F7C9
:100DA0009A01282339238A81882F90E0A90102C063
:100DB000559547958A95E2F7CA01EB81FC818083BE
:100DC00063C0E6E3F0E08081482F50E08A81282F5D
:100DD00030E081E090E002C0880F991F2A95E2F789
:100DE0009A01282339238A81882F90E0A90102C023
:100DF000559547958A95E2F7CA01EB81FC8180837E
:100E000043C0E3E3F0E08081482F50E08A81282F3F
:100E100030E081E090E002C0880F991F2A95E2F748
:100E20009A01282339238A81882F90E0A90102C0E2
:100E3000559547958A95E2F7CA01EB81FC8180833D
:100E400023C0E0E3F0E08081482F50E08A81282F22
:100E500030E081E090E002C0880F991F2A95E2F708
:100E60009A01282339238A81882F90E0A90102C0A2
:100E7000559547958A95E2F7CA01EB81FC818083FD
:100E800003C051E05D8301C01D828D8127960FB69E
:100E9000F894DEBF0FBECDBFCF91DF910895DF93F1
:100EA000CF9300D000D000D0CDB7DEB789837B834D
:100EB0006A838981282F30E03E832D838D819E8136
:100EC00081309105E1F02D813E81223031052CF4F5
:100ED0008D819E81009761F027C02D813E81223057
:100EE0003105A1F08D819E8183309105B1F01CC048
:100EF000E9E3F0E08081EA81FB81808318C0E6E3CA
:100F0000F0E08081EA81FB81808311C0E3E3F0E0BF
:100F10008081EA81FB8180830AC0E0E3F0E0808188
:100F2000EA81FB81808303C091E09C8301C01C8225
:100F30008C8126960FB6F894DEBF0FBECDBFCF9141
:100F4000DF910895DF93CF930F92CDB7DEB780E0A6
:100F500060E040E00E94FB03898380E061E040E0C4
:100F60000E94FB03982F8981892B898380E060E0B0
:100F700041E00E94FD04982F8981892B898380E0BC
:100F800061E041E00E94FD04982F8981892B8983CB
:100F900080E062E041E00E94FB03982F8981892B69
:100FA000898383E060E040E00E94FB03982F898101
:100FB000892B898383E061E041E00E94FB03982F45
:100FC0008981892B898389810F90CF91DF91089541
:100FD000DF93CF93CDB7DEB70E940F01CF91DF91A2
:100FE0000895DF93CF9300D00F92CDB7DEB78A83F9
:100FF0006B8319828A81882349F48A81882F90E043
:10100000FC01E557FF4F8B81808302C081E089831B
:1010100089810F900F900F90CF91DF910895DF930A
:10102000CF9300D000D0CDB7DEB78A837C836B83AB
:1010300019828A81882359F48A81882F90E0FC01E3
:10104000E457FF4F8081EB81FC81808302C081E007
:10105000898389810F900F900F900F90CF91DF912E
:101060000895DF93CF9300D000D0CDB7DEB71C82B8
:101070001B82B3C08B81282F30E0C901880F991FD4
:10108000880F991F880F991F820F931FFC01E85842
:10109000FF4F10821A8257C08B81282F30E08A813F
:1010A000482F50E0C901880F991F880F991F880F9A
:1010B000991F820F931F840F951FFC01E758FF4F64
:1010C000808189838B81482F50E08B81282F30E0ED
:1010D000C901880F991F880F991F880F991F820FC8
:1010E000931FFC01E858FF4F8081682F8981882F6A
:1010F00090E0FC01E557FF4F8081282F30E0898187
:10110000882F90E0880F991FFC01EA57FF4F8081DC
:10111000882F90E0F90102C0EE0FFF1F8A95E2F7D9
:10112000CF01862B282FCA01880F991F880F991F7E
:10113000880F991F840F951FFC01E858FF4F2083EB
:101140008A818F5F8A838B81282F30E0C901880FC5
:10115000991F880F991F880F991F820F931FFC01F9
:10116000E158FF4F90818A81891708F495CF8B81D0
:10117000282F30E0C901880F991F880F991F880F09
:10118000991F820F931FFC01E958FF4F8081882F20
:1011900090E00024969587950794969587950794F7
:1011A000982F802D482F8B81282F30E0C901880F80
:1011B000991F880F991F880F991F820F931FFC0199
:1011C000E858FF4F8081842B0E941802982F8C8151
:1011D000892B8C838B818F5F8B838B81882309F490
:1011E00049CF8C810F900F900F900F90CF91DF918E
:1011F0000895DF93CF9300D000D000D0CDB7DEB7F5
:101200001D82CE0106960E943A028D838E818295C0
:101210008695869583708C838D81882309F0A1C083
:101220001B829BC08B81282F30E0C901880F991F3A
:10123000880F991F880F991F820F931FFC01E9588F
:10124000FF4F90818C81981709F084C01A826EC07C
:101250008B81282F30E08A81482F50E0C901880F08
:10126000991F880F991F880F991F820F931F840F52
:10127000951FFC01E758FF4F808189838B81282FC0
:1012800030E08A81482F50E0C901880F991F880FEC
:10129000991F880F991F820F931F840F951FFC01C0
:1012A000E758FF4F8081682F70E08E81482F50E013
:1012B0008981882F90E0880F991FFC01EA57FF4F22
:1012C0008081282F30E08981882F90E0880F991F36
:1012D000FC01E957FF4F8081882F90E0280F391FCC
:1012E00088E090E0821B930B02C0440F551F8A9543
:1012F000E2F78981882F90E0880F991FFC01E95758
:10130000FF4F8081282F30E088E090E0821B930B14
:101310009A0102C0359527958A95E2F7C901FB012C
:10132000E457FF4F80838A818F5F8A838B81282FC8
:1013300030E0C901880F991F880F991F880F991FE6
:10134000820F931FFC01E158FF4F90818A8189171A
:1013500008F47ECF8B818F5F8B838B81882309F488
:1013600061CF8D8126960FB6F894DEBF0FBECDBF3C
:10137000CF91DF910895DF93CF93CDB7DEB70E9471
:08138000D702FFCFF894FFCF64
:1013880001F0000500000000000000010201320029
:101398000000000000000100000000000000000143
:0813A800033300000000050101
:00000001FF
